{
  "_format": "hh-sol-artifact-1",
  "contractName": "SimpleVoting",
  "sourceName": "contracts/SimpleVoting.sol",
  "abi": [
    {
      "inputs": [
        {
          "internalType": "uint256",
          "name": "_numChoices",
          "type": "uint256"
        }
      ],
      "stateMutability": "nonpayable",
      "type": "constructor"
    },
    {
      "anonymous": false,
      "inputs": [
        {
          "indexed": true,
          "internalType": "address",
          "name": "voter",
          "type": "address"
        },
        {
          "indexed": false,
          "internalType": "uint256",
          "name": "choice",
          "type": "uint256"
        },
        {
          "indexed": false,
          "internalType": "int8",
          "name": "quantity",
          "type": "int8"
        }
      ],
      "name": "Voted",
      "type": "event"
    },
    {
      "inputs": [],
      "name": "clearVote",
      "outputs": [],
      "stateMutability": "nonpayable",
      "type": "function"
    },
    {
      "inputs": [],
      "name": "getVotes",
      "outputs": [
        {
          "internalType": "uint256[]",
          "name": "",
          "type": "uint256[]"
        }
      ],
      "stateMutability": "view",
      "type": "function"
    },
    {
      "inputs": [
        {
          "internalType": "address",
          "name": "",
          "type": "address"
        }
      ],
      "name": "hasVoted",
      "outputs": [
        {
          "internalType": "bool",
          "name": "",
          "type": "bool"
        }
      ],
      "stateMutability": "view",
      "type": "function"
    },
    {
      "inputs": [],
      "name": "numChoices",
      "outputs": [
        {
          "internalType": "uint256",
          "name": "",
          "type": "uint256"
        }
      ],
      "stateMutability": "view",
      "type": "function"
    },
    {
      "inputs": [
        {
          "internalType": "uint256",
          "name": "choice",
          "type": "uint256"
        }
      ],
      "name": "vote",
      "outputs": [],
      "stateMutability": "nonpayable",
      "type": "function"
    },
    {
      "inputs": [
        {
          "internalType": "uint256",
          "name": "",
          "type": "uint256"
        }
      ],
      "name": "voteCounts",
      "outputs": [
        {
          "internalType": "uint256",
          "name": "",
          "type": "uint256"
        }
      ],
      "stateMutability": "view",
      "type": "function"
    },
    {
      "inputs": [
        {
          "internalType": "address",
          "name": "",
          "type": "address"
        }
      ],
      "name": "votes",
      "outputs": [
        {
          "internalType": "uint256",
          "name": "",
          "type": "uint256"
        }
      ],
      "stateMutability": "view",
      "type": "function"
    }
  ],
  "bytecode": "0x608060405234801561001057600080fd5b5060405161084c38038061084c83398101604081905261002f91610145565b600081116100835760405162461bcd60e51b815260206004820181905260248201527f4e756d626572206f662063686f69636573206d757374206265203e207a65726f604482015260640160405180910390fd5b6000819055806001600160401b038111156100a0576100a061015e565b6040519080825280602002602001820160405280156100c9578160200160208202803683370190505b5080516100de916001916020909101906100e5565b5050610174565b828054828255906000526020600020908101928215610120579160200282015b82811115610120578251825591602001919060010190610105565b5061012c929150610130565b5090565b5b8082111561012c5760008155600101610131565b60006020828403121561015757600080fd5b5051919050565b634e487b7160e01b600052604160045260246000fd5b6106c9806101836000396000f3fe608060405234801561001057600080fd5b506004361061007d5760003560e01c80633c3a220d1161005b5780633c3a220d146100e4578063a9092c1114610105578063d8bff5a51461010e578063e6fc636a1461012e57600080fd5b80630121b93f1461008257806309eef43e146100975780630dc96015146100cf575b600080fd5b61009561009036600461056f565b610136565b005b6100ba6100a5366004610588565b60036020526000908152604090205460ff1681565b60405190151581526020015b60405180910390f35b6100d761039c565b6040516100c691906105c5565b6100f76100f236600461056f565b6103f4565b6040519081526020016100c6565b6100f760005481565b6100f761011c366004610588565b60026020526000908152604090205481565b610095610415565b60005481106101a6576040517f08c379a000000000000000000000000000000000000000000000000000000000815260206004820152600e60248201527f496e76616c69642063686f69636500000000000000000000000000000000000060448201526064015b60405180910390fd5b3360009081526003602052604090205460ff1661027957336000908152600260205260409020819055600180548190839081106101e5576101e5610609565b9060005260206000200160008282546101fe9190610667565b90915550503360008181526003602090815260409182902080547fffffffffffffffffffffffffffffffffffffffffffffffffffffffffffffff001660019081179091558251858152918201527ff491647f3871bd3baf60bf5918fd157d19540f0374ef53fa58ea822fb95f4907910160405180910390a250565b336000908152600260205260409020546001805481908390811061029f5761029f610609565b9060005260206000200160008282546102b89190610680565b9091555050604080518281527fffffffffffffffffffffffffffffffffffffffffffffffffffffffffffffffff602082015233917ff491647f3871bd3baf60bf5918fd157d19540f0374ef53fa58ea822fb95f4907910160405180910390a23360009081526002602052604090208290556001805481908490811061033f5761033f610609565b9060005260206000200160008282546103589190610667565b9091555050604080518381526001602082015233917ff491647f3871bd3baf60bf5918fd157d19540f0374ef53fa58ea822fb95f4907910160405180910390a25050565b606060018054806020026020016040519081016040528092919081815260200182805480156103ea57602002820191906000526020600020905b8154815260200190600101908083116103d6575b5050505050905090565b6001818154811061040457600080fd5b600091825260209091200154905081565b3360009081526003602052604090205460ff1661048e576040517f08c379a000000000000000000000000000000000000000000000000000000000815260206004820152601060248201527f4e6f20766f746520746f20636c65617200000000000000000000000000000000604482015260640161019d565b33600090815260026020526040902054600180548190839081106104b4576104b4610609565b9060005260206000200160008282546104cd9190610680565b9091555050604080518281527fffffffffffffffffffffffffffffffffffffffffffffffffffffffffffffffff602082015233917ff491647f3871bd3baf60bf5918fd157d19540f0374ef53fa58ea822fb95f4907910160405180910390a25033600090815260036020908152604080832080547fffffffffffffffffffffffffffffffffffffffffffffffffffffffffffffff001690556002909152812055565b60006020828403121561058157600080fd5b5035919050565b60006020828403121561059a57600080fd5b813573ffffffffffffffffffffffffffffffffffffffff811681146105be57600080fd5b9392505050565b6020808252825182820181905260009190848201906040850190845b818110156105fd578351835292840192918401916001016105e1565b50909695505050505050565b7f4e487b7100000000000000000000000000000000000000000000000000000000600052603260045260246000fd5b7f4e487b7100000000000000000000000000000000000000000000000000000000600052601160045260246000fd5b8082018082111561067a5761067a610638565b92915050565b8181038181111561067a5761067a61063856fea2646970667358221220b3c7c46a1a62d9ddfa005bea45f104bd8574e4c8191d204f45aa4f57cc9d720064736f6c63430008180033",
  "linkReferences": {},
  "deployedLinkReferences": {}
}